:100000000C94FE020C9445030C9445030C94450398
:100010000C9445030C9445030C9445030C94450340
:100020000C9445030C9445030C940B2D0C94DD2D7E
:100030000C942A250C9445030C9445030C94450319
:100040000C9445030C9445030C9445030C94450310
:100050000C9445030C949F250C9445030C94450384
:100060000C9445030C9445030C9445030C944503F0
:100070000C9445030C9445030C9445030C944503E0
:100080000C9445030C9445030C9445030C944503D0
:100090000C9445030C9445030C9445030C944503C0
:1000A0000C9445030C9445030C9445039711A0113F
:1000B000A511AA11AF11B411B911BE11C311C81104
:1000C000CD11D211D711DC11E111E611EB11F011B4
:1000D000F511FA11FF11041209120E129615991555
:1000E0009E15A515AA15AF15B415B915BE15C315DE
:1000F000C815CD15CF15D115D315D915D915D915C5
:10010000D915D915361B361B681B681BB51BD31BAD
:10011000E71CE71CDE1B771C881C881C871D871DBD
:10012000991D991D901D991D991D991D871D871D4C
:10013000951D991D991D951D4A2E712E692F712EA1
:10014000692FBD2EE02E692F372F462F35001E0058
:100150001F0020002100220023002400250026008B
:1001600027002D002E002A002B0014001A00080082
:10017000150017001C0018000C00120013002F00BF
:1001800030003100396104001600070009000A0040
:100190000B000D000E000F0033003400000028009B
:1001A000E1001D001B0006001900050011001000F1
:1001B000360037003800035100000000E000E30083
:1001C000E200000000002C000000000000000151CF
:1001D000E30002510000E40029003A003B003C002B
:1001E0003D003E003F00400041004200430044000B
:1001F00045004C000100000052000000000000001B
:10020000B2005F0060006100460047004800005CEB
:100210000100500051004F000000000000005C0091
:100220005D005E004B004E0000000100AC00AA0023
:10023000A900A800BD00BE00145C59005A005B0074
:100240006200AB000000000001000100010000009E
:10025000000001000000000000000100010001009A
:100260000000010001003A003B003C003D003E0060
:100270003F004000410042004300440045002A0086
:100280000100BF5CC05CC15CBB5CBC5CBE5CBD5CB7
:10029000C95CCA5C010001000100005C0100CD5C8A
:1002A000CE5CCF5CD05CD15CD25CD35CD45CD55CE2
:1002B00001000100000001000100C25CC35CC55CDC
:1002C000C65CC75CC85CC95CCA5CCB5CCC5CCC5C03
:1002D000000000000100010001000000000001001A
:1002E000000000000000010001000100000001000A
:1002F00001000100010001000100010001000100F6
:1003000001000100010001000100010001000000E6
:10031000F0000000FD00FE00FF00000000000000F3
:1003200000000000000001000100F200F100F300F5
:10033000F400F500000000000000000000000000D4
:10034000000001000100F900FA00FB00FC000000C1
:10035000000000000000000000000100000000009C
:100360000100010001000000000001000000000089
:100370000000010001000100000001000001010176
:100380000101010101010202020202020202020352
:100390000303030303030304040404040404050522
:1003A00005050506060606060707070707080808E5
:1003B00008090909090A0A0A0B0B0B0C0C0C0D0D94
:1003C0000D0E0E0E0F0F0F1010111111121213132C
:1003D0001414151516161717181819191A1A1B1BA5
:1003E0001C1D1D1E1E1F2020212222232424252601
:1003F00026272829292A2B2C2D2D2E2F3031323239
:10040000333435363738393A3B3C3D3E3F40414244
:10041000434445464748494A4C4D4E4F505153542A
:10042000555658595A5B5D5E5F61626465666869DE
:100430006B6C6D6F7072737577787A7B7D7E80825E
:10044000838587888A8C8E8F91939596989A9C9EA7
:10045000A0A2A3A5A7A9ABADAFB1B3B5B7BABCBEB7
:10046000C0C2C4C6C9CBCDCFD1D4D6D8DBDDDFE284
:10047000E4E7E9EBEEF0F3F5F8FAFDFF04033000F2
:1004800000001A0344005A003600300052004700B2
:1004900042005F0041004E005300490000000E037F
:1004A00044005A0054004500430048000000040383
:1004B000090409023B00020100A0FA09040000013E
:1004C00003010100092111010001224000070581FB
:1004D0000308000A090401000103000000092111BA
:1004E00001000122BC000705820320000A1201104E
:1004F00001000000085A4421120200010203010514
:10050000010902A10185020901A1000509190129BA
:100510000515002501950575018102950175038179
:10052000010501093009311581257F950275088182
:100530000609381581257F950175088106050C0A85
:1005400038021581257F950175088106C0C0050117
:100550000980A101850319012AB700150126B700FA
:10056000950175108100C0050C0901A101850419D0
:10057000012AA002150126A002950175108100C074
:1005800005010906A1018505050719E029E7150000
:1005900025019508750181020507190029EF15004D
:1005A000250195F0750181020508190129059505B8
:1005B00075019102950175039101C005010906A11C
:1005C00001050719E029E715002501950875018146
:1005D000029501750881010507190029FF150026FC
:1005E000FF00950675088100050819012905950584
:1005F00075019102950175039101C00011241FBE80
:10060000CFEFDAE0DEBFCDBF04B603FE27C0809196
:10061000090790910A07A0910B07B0910C0787304A
:10062000904BA740B04BD1F41092090710920A07E3
:1006300010920B0710920C0714BE84B7877F84BFFB
:100640000FB6F894A895809160008861809360004F
:10065000109260000FBEE0E0F8E3099513E0A0E01F
:10066000B1E0EEECF1E602C005900D92A839B107B9
:10067000D9F727E0A8E9B3E001C01D92A930B2077D
:10068000E1F70E94492A0C94E5300C94000081E0C7
:100690000E9492120C94F02480E00E9492120C941A
:1006A000D6240E94EA1881FF07C02FEF4FEF6FEFAB
:1006B00088E290E00C94EE0A089581E0089581E0CC
:1006C00008950C945F0308950C9463031F93CF93D4
:1006D000DF9300D000D01F92CDB7DEB749835A8395
:1006E0006B833091580489819A81311114C066233B
:1006F00059F0222349F00E944622182F682F898141
:100700009A810E94EF2103C00E941A22182F69814A
:100710007A81812F04C00E94462269817A810F90DC
:100720000F900F900F900F90DF91CF911F910C942D
:100730002604FC01262F40815181628173818481CE
:100740000C946603CF93DF93EC0160E00E94990361
:10075000BE01DF91CF910C9464030E94EB250E94AF
:100760007123811102C00E9411240E9464120C9412
:1007700027060E94FE100C94230608950C94BD03D6
:1007800081E008950C94C003CF93C82F0E94BE034C
:100790008C2F0E94C203CF91089508950E94751D69
:1007A0000E94CD032FEF84E39CE0215080409040D5
:1007B000E1F700C000000C94C5250F931F93CF9361
:1007C000DF93EC0161E00E9499038C01BE010E945D
:1007D0005B108823A9F1BE01C8010E946103882330
:1007E00079F1BE01C8010E947716882349F1BE0144
:1007F000C8010E94C916882319F1BE01C8010E94D0
:10080000F4178823E9F0BE01C8010E947F158823F0
:10081000B9F08A81882369F001158CE5180731F059
:100820000E3D1C4531F40E9411240AC00E94CE03E3
:1008300007C0CE01DF91CF911F910F910C945D0302
:1008400080E0DF91CF911F910F91089526E4829F60
:10085000C0011124FC012EE0729FE00DF11D112456
:10086000E60FF11DEE0FFF1FE45BFE4F85919491A3
:100870000895CF93DF930E9426040E943B05EC016C
:10088000811521E5920708F043C0811540E59407E2
:1008900008F08AC0883E910520F5803E910508F059
:1008A000E6C0883A910570F4853A910508F074C065
:1008B0008130910509F4DBC008F4D7C0049708F033
:1008C000D6C0D3C08F3B910508F0CFC0C85AD0E046
:1008D000CC0FDD1FCD5EDC4F0990D881C02DD464D4
:1008E000C6C0C11580E2D80758F4C11521E0D2076F
:1008F00008F0BDC0C03FD10508F4B7C0D065B7C08F
:10090000C11540E4D40708F4B0C0DF70D06AAFC0AE
:10091000C11585E5D807A0F4C11524E5D20708F074
:100920008AC0C11543E5D40708F06FC0C11582E540
:10093000D80708F054C0DC2FCC27C16FD06A97C00D
:10094000C11529E5D207A0F4C11548E5D40708F080
:1009500077C0C11586E5D80708F087C08C2F0E94A4
:10096000CF058F71C82FD0E0DC2FCC27D0627FC09D
:10097000C1152AE5D20708F468C0CE01905681154A
:10098000904208F072C08D2F8F710E94CF05DD2735
:10099000D0628F71D82B6BC0C55AD0E0CF5BDC4FD3
:1009A000C881D0E0D06463C074E0969587957A954D
:1009B000E1F783709C2F937021E030E002C0220F9A
:1009C000331F9A95E2F73C68382BCF70C695C695D1
:1009D00080E2C89FE0011124C22BD32B48C0CE0176
:1009E0008370992721E030E002C0220F331F8A95DF
:1009F000E2F78C2F8695869540E2849FC0011124F2
:100A0000E901C82BD92BDC6832C0CE01837099274D
:100A100021E030E002C0220F331F8A95E2F78C2FCD
:100A20008695869540E2849FC0011124E901C82B78
:100A3000D92BDA681CC0DC2FCC27C46FD06A17C052
:100A4000DC2FCC27C06FD06A12C08C2F8F700E9411
:100A5000CF0594E0D695C7959A95E1F7CF70D0E091
:100A6000DC2FCC27D069C82B02C0C0E0D0E0CE017B
:100A7000DF91CF9108958238910569F1B0F4813307
:100A8000910509F46DC048F48932910509F463C0F9
:100A90008A32910509F469C008958533910509F4F6
:100AA00055C089339105B9F00895833E910569F1E8
:100AB00038F4803E9105B1F0823E910509F1089528
:100AC000863E9105A9F1873E9105B9F1843E9105D5
:100AD00009F064C023C02091FA0620FD4FC021FD1B
:100AE0004DC008958091FA0680FD44C08091FB06B8
:100AF00080FF44C08091FA0684FD42C083EE4DC061
:100B00008091FA0682FF38C0F5CF8091FA0682FD07
:100B100033C08091FB0680FD31C0ECCF8091FB0695
:100B200081FF32C08091FA0684FD2AC087EE35C06D
:100B30008091FA0683FF26C0F5CF8091FA0683FDE7
:100B400021C08091FB0681FD1FC0ECCF8091FA0689
:100B500085FD1CC01DC08091FA0685FD19C016C018
:100B60008091FA0686FD16C017C08091FA0686FDB0
:100B700013C010C089E311C082EE0FC080EE0DC01B
:100B800080E00BC086EE09C084EE07C089E205C094
:100B900085E303C08AE201C081E390E0089590916B
:100BA000FA0692FF0DC0282F2871283019F4877F8C
:100BB000846006C0282F2471243011F48B7F886054
:100BC00093FF0DC0282F2871283119F4877E846186
:100BD00006C0282F2471243111F48B7E8861209166
:100BE000FB0620FF0DC0382F3871383019F4877F8D
:100BF000816006C0382F3171313011F48E7F8860EA
:100C000021FF0DC0282F2871283119F4877E8161BA
:100C100006C0282F2171213111F48E7E886194FD48
:100C2000877E0895E82FF0E0EE0FFF1FEA5DFA4F90
:100C3000808191810895089580EA8A95F1F7089559
:100C400008950C9420060C9421060C9420060C9414
:100C50002506CF93DF93A2E5B3E047E553E061E0DB
:100C600070E08D91E82FE295EF70F0E021A18F7098
:100C7000EB0102C0CC0FDD1F8A95E2F7CE019C2F5D
:100C80009095922391A392A1892B82A34A175B0787
:100C900041F7A4E4B3E042E553E061E070E08D91F8
:100CA000E82FE295EF70F0E021A18F70EB0102C018
:100CB000CC0FDD1F8A95E2F7CE019C2F90959223F1
:100CC00091A392A1892B82A34A175B0741F7ECE11C
:100CD000F5E0A6E2B5E086E295E0119211921D9250
:100CE0001D928E179F07C9F785E00E940807DF91C4
:100CF000CF910C94AD036F927F928F929F92AF929F
:100D0000BF92CF92DF92EF92FF920F931F93CF93F8
:100D1000DF9382E5C82E83E0D82E0CE115E096E241
:100D2000A92E95E0B92E712C88248394912CF6017C
:100D300081916F01C82FC295CF70D0E099A18F70BB
:100D4000740101C0EE0C8A95EAF7892F8E2989A3D8
:100D50008AA16E2C609486218AA30E941C06E4E47A
:100D6000F3E040E050E020E030E06191A62FA29552
:100D7000AF70B0E090968C9190E06F7002C0959546
:100D800087956A95E2F780FD08C0C401042E02C071
:100D9000880F991F0A94E2F702C080E090E0282BA8
:100DA000392B4F5F5F4F4E305105F9F689A168220C
:100DB00069A28AA1E82AEAA2F80180819181281714
:100DC000390721F03183208381E001C080E0782A57
:100DD0000E5F1F4FA016B10609F0A9CF272D45E0E1
:100DE00066E275E08CE195E00E9409070E94B90374
:100DF000872DDF91CF911F910F91FF90EF90DF90A2
:100E0000CF90BF90AF909F908F907F906F900895FC
:100E10000895FF920F931F93CF93DF93F82E092F1E
:100E2000162FD72FC42F222349F081E080939A03F5
:100E30000E945C25909399038093980380919A0374
:100E40008823D9F080919803909199030E9474258A
:100E5000049798F0EF2DF02FA12FBD2F80E090E0A8
:100E60004C2F50E08417950734F4219131912D9344
:100E70003D930196F7CF10929A03DF91CF911F9186
:100E80000F91FF900895EF92FF920F931F93CF93CE
:100E9000DF938B01682F11110AC0442329F0E82F3A
:100EA000F0E0E458FC4F6491762F862F75C0212F17
:100EB00030E0E82FF0E0442321F0E458FC4FE491C7
:100EC000F0E046E0049FC0011124CFEFD0E0BE0166
:100ED0000E949D2F4BEA4603C001479F900D1124AD
:100EE000800F911D800F911D982F990F890FAE01D2
:100EF000421B530B4E9FD0014F9FB00D5E9FB00D14
:100F000011249B2F189FA0011124452F55278E01D6
:100F1000041B150B0E9FA0010F9F500D1E9F500D1F
:100F200011247E01E81AF108E29E8001E39E100D73
:100F3000F29E100D1124212F3327C21BD30BCE9FFD
:100F40009001CF9F300DDE9F300D1124623071056E
:100F5000A9F048F46115710569F061307105C9F4B3
:100F60008B2F752F0DC06430710581F058F06630FD
:100F7000710579F47E2F8B2F932F0DC0832F7B2F3C
:100F80009E2F09C08E2F7B2F952F05C08E2F732F7C
:100F900002C07E2F852F692FDF91CF911F910F9176
:100FA000FF90EF90089541E00E944307089520E0EC
:100FB00030E0869F212D969F200D311D1124C901FF
:100FC0000895BC018230910508F40895613E8EE1D8
:100FD000780748F49B0195E0369527959A95E1F7B7
:100FE00048E0420F01C04FEF91E0242F30E0290F7D
:100FF000311D35952795229FF001239FF00DF00DAF
:1010000011246E177F0718F44FEF420F04C02F3FD3
:1010100039F091E0920F491740F78FEF890F08954B
:101020008FEF0895482F982F46FD9095E92FEF7385
:101030009F7046FD9F5FE295EF70EE0FF0E0E95A7A
:10104000FC4F2181299F802D212D112482958F70A5
:101050002295207F822B3081982F930F892F47FD77
:10106000819580580895E42FF0E0EE0FFF1FE65BB6
:10107000FE4F408134EE439F412D1124E82FF0E0D4
:1010800050E0445E5F4FDA01A21BB1099D01B7FF3A
:1010900003C031952195310993E0220F331F9A95B2
:1010A000E1F7AF01421B530B9A0157FF02C020E04A
:1010B00030E0582F259F212D1124822F0895622F73
:1010C0000895E42FF0E0EE0FFF1FE65BFE4F608116
:1010D000621B0895E42FF0E0EE0FFF1FE55BFE4F6B
:1010E0006081621B0895A22F50E0FA01EE0FFF1FEE
:1010F000E55BFE4F9081905297FD9195440F551FEF
:10110000FA01E65BFE4F3081232F30E02A1B3109C4
:10111000290F311D97FD3A95620F0895EF920F93B5
:101120001F9393E0099F80011124159507956E2D5B
:10113000600F1F910F91EF9008950F93CF93DF935E
:10114000D72FC82F47FD4195E8E3F0E0CF01841B7E
:10115000910947FD9395889FB001899F700D700D8F
:101160001124229FC001239F900D900D1124860F02
:10117000971F0E94E107682F660F860F682F600F88
:101180007D2F8C2FDF91CF910F9108950F931F9397
:10119000522F10E0F801EE0FFF1FE55BFE4FE081DC
:1011A000F0E0B0979F015203D001539FB00D11247E
:1011B000000F111FF801E65BFE4F008110E00057A1
:1011C000110940039001419F300D11242A0F3B1F4C
:1011D00037FF02C021583F4F220F232F221F330B0E
:1011E000620F1F910F9108950F931F93522F10E0DC
:1011F000F801EE0FFF1FE55BFE4FE081F0E0B097D6
:10120000EE0FFF1F9F015203D001539FB00D112419
:10121000000F111FF801E65BFE4F008110E0005740
:101220001109000F111F40039001419F300D11243F
:101230002A0F3B1F37FF02C021583F4F220F232F99
:10124000221F330B620F1F910F9108950F931F936D
:1012500010E0F801EE0FFF1FE65BFE4F9081905704
:1012600097FD9195000F111FF801E55BFE4FE0819E
:10127000F0E0B097DF01AA0FBB1F8D010E0F1F1FFB
:101280002003D001219FB00D1124E8E3F0E0E91B19
:10129000F10997FDF3959F01220F331F89010E0F6E
:1012A0001F1F40039001419F300D11242A0F3B1F47
:1012B00037FF02C021583F4F220F232F221F330B2D
:1012C000620F1F910F9108954095282F429F412D45
:1012D0001124842F089522E8241B08F420E0620FD3
:1012E0000895FC019B01009721F477FF2BC080E853
:1012F0000895AC0197FF04C044275527481B590B9C
:10130000B901640F751F37FD0CC0241B350BC901D3
:10131000A5E0880F991FAA95E1F70E94B12F80E2FE
:101320000CC0CB0165E0880F991F6A95E1F7BA01FF
:10133000621B730B0E94B12F80E6861BF7FF03C070
:101340008195089580E00895FF920F931F93CF93A6
:10135000DF93F62ED72F182FC901C12FC01BBA015A
:101360000E947109982F990F890FC81B2C2F219F5C
:10137000212D1124822F6F2D7D2FDF91CF911F9171
:101380000F91FF900895EF920F931F93CF93DF93E8
:10139000D62FC72F182FC9010E19010FBA010E94AD
:1013A0007109081B202F219F212D1124822F6D2FC1
:1013B0007C2FDF91CF911F910F91EF9008950F93A4
:1013C000CF93DF93D72FC82FC901BA010E947109AB
:1013D000682F600F7D2F8C2FDF91CF910F91089593
:1013E000EF920F93CF93DF93D72FC82FC9010E1918
:1013F000BA010E947109602F681B7D2F8C2FDF912D
:10140000CF910F91EF9008951F93CF93DF93FC013D
:10141000618140815FEF560FA1E0A60F9FEF940F0F
:1014200081E0840FC62FD0E0941780F42EE02C9F2B
:10143000F0012D9FF00D1124E853FC4FE90FF11D31
:10144000208130E1230F08F42FEF2083242F30E098
:101450007EE07C9FF0017D9FF00D1124E853FC4F4E
:10146000EF01C20FD31F788110E2710F08F47FEFF4
:1014700078838E3040F4E80FF11D708110E1710F18
:1014800008F47FEF7083A53070F5B0E0941780F416
:101490007EE07A9FF0017B9FF00D1124E853FC4F12
:1014A000E90FF11D70811DE0710F08F47FEF70836B
:1014B0007EE07A9FF0017B9FF00D1124E853FC4FF2
:1014C000DF01A20FB31F7C9110E1710F08F47FEFD1
:1014D0007C938E3040F4E80FF11D70811DE0710F98
:1014E00008F47FEF7083561778F5652F70E0941736
:1014F00080F44EE0469FF001479FF00D1124E85321
:10150000FC4FE90FF11D40815DE0450F08F44FEFFE
:1015100040839EE0969FF001979FF00D1124E853C1
:10152000FC4FDF01A20FB31F2C9130E1230F08F411
:101530002FEF2C938E3040F4E80FF11D20813DE019
:10154000230F08F42FEF2083DF91CF911F9108958F
:1015500045E050E06CE170E080E395E00C94713080
:1015600045E050E06CE170E080E395E00C948F3052
:10157000E0E3F5E085E2808380911C0290911D02FA
:10158000A0911E0281839283A3838FE784830C94AE
:10159000B00A80E008950F931F93CF93DF93C82F75
:1015A000D62F8A010E94C90A9EE0C99FF00111242A
:1015B000EC5FFE4FED0FF11D90819F3F29F0F80188
:1015C000E80FF11D90838F5FDF91CF911F910F91F5
:1015D0000895E0916503F09166030994E091610339
:1015E000F091620309944F925F926F927F928F9273
:1015F0009F92AF92BF92CF92DF92EF920F931F9381
:10160000CF93DF932C013B01FC01C0818DE0C89F8B
:10161000C02D1124DDE0DC0FDE3308F0DDE3609146
:101620003405669580913505909136050E94D7075F
:10163000182FCD1708F044C08C2E912CF401EC53D8
:10164000FE4F9081F20181818923C1F1F401EE0FF7
:10165000FF1FE65BFE4FC080D12CF0E7CF1AD10808
:10166000F401EE0FFF1FE55BFE4FA080B12C80E27E
:10167000A81AB108CC9C9001CD9C300D300D1124DE
:10168000AA9CC001AB9C900D900D1124820F931F5A
:101690000E94E107082F6091310570913205809119
:1016A0003305E12E9501A601F30109950E94D307A8
:1016B000462F282F672FC4010E94EE0ACF5FB9CFB3
:1016C00081E0DD3308F080E0DF91CF911F910F9131
:1016D000EF90DF90CF90BF90AF909F908F907F90D2
:1016E0006F905F904F90089563EC79E00C94F30A4B
:1016F0006EE878E00C94F30A60EF79E00C94F30A5A
:10170000AF92BF92CF92DF92EF92FF920F931F930F
:10171000CF93DF936C015B01FC01C0818DE0C89F1A
:10172000C02D1124DDE0DC0FDE3308F0DDE3609135
:101730003405669580913505909136050E94D7074E
:10174000182FCD1778F5EC2EF12CF701EC53FE4F46
:101750009081F6018181892319F1F701EE0FFF1FB6
:10176000E55BFE4F208130E020523109F701EE0F9A
:10177000FF1FE65BFE4F408150E0405751096091EA
:1017800031057091320580913305012FF5010995DE
:101790000E94D307462F282F672FC7010E94EE0A09
:1017A000CF5FCFCF81E0DD3308F080E0DF91CF91D4
:1017B0001F910F91FF90EF90DF90CF90BF90AF906F
:1017C000089564EA79E00C94800B6DE978E00C945C
:1017D000800B6FED79E00C94800BBF92CF92DF927B
:1017E000EF92FF920F931F93CF93DF938C017B01B6
:1017F000FC01C0818DE0C89FC02D1124DDE0DC0F0D
:10180000DE3308F0DDE360913405669566958091DE
:101810003505909136050E94D707B82ECD17F0F404
:10182000CC2ED12CF601EC53FE4F9081F801818132
:10183000892391F0609131057091320580913305D3
:101840002B2D4C2FF70109950E94D307462F282FE7
:10185000672FC6010E94EE0ACF5FE0CF81E0DD3343
:1018600008F080E0DF91CF911F910F91FF90EF90F2
:10187000DF90CF90BF90089563E378E00C94ED0B78
:101880006FE578E00C94ED0B61E678E00C94ED0BDD
:101890006AE678E00C94ED0B63E778E00C94ED0BCE
:1018A0007F928F929F92AF92BF92CF92DF92EF92F0
:1018B000FF920F931F93CF93DF936C015B01FC01A9
:1018C000C0818DE0C89FC02D1124DDE0DC0FDE3328
:1018D00008F0DDE3609134056695669580913505E5
:1018E000909136050E94D707182F80E4810F0E943F
:1018F000120890E8F92EF80E812F0E94120820E8B5
:10190000722E780ECD1700F58C2E912CF401EC532D
:10191000FE4F9081F60181818923A1F0609131050C
:101920007091320580913305E12E0C2F272D4F2D1C
:10193000F50109950E94D307462F282F672FC40170
:101940000E94EE0ACF5FDECF81E0DD3308F080E059
:10195000DF91CF911F910F91FF90EF90DF90CF908B
:10196000BF90AF909F908F907F90089566EC78E045
:101970000C94500C64EF78E00C94500C66E279E023
:101980000C94500CAF92BF92CF92DF92EF92FF92E5
:101990000F931F93CF93DF937C015B01FC01C08108
:1019A0008DE0C89FC02D1124DDE0DC0FDE3308F090
:1019B000DDE32091340530E040E050E06FEF7FEF51
:1019C00080E090E00E94C52F8901CD17E8F5CC2E6C
:1019D000D12CF601EC53FE4F9081F70181818923D0
:1019E00089F190913905915097FD15C0292F092E45
:1019F000000C330BF901E75CFA4F8189C813F3CF70
:101A0000220F331FF901E75CFA4F218D328D201729
:101A1000310748F701C0980160913405C9010E945F
:101A2000D707AC0160913105709132058091330583
:101A3000F50109950E94D307462F282F672FC6016D
:101A40000E94EE0ACF5FC1CF81E0DD3308F080E075
:101A5000DF91CF911F910F91FF90EF90DF90CF908A
:101A6000BF90AF90089564E679E00C94C20C6BE6E9
:101A700079E00C94C20CDF92EF92FF920F931F93C8
:101A8000CF93DF938C01DC018C91CDE08C9FC02D36
:101A90001124DDE0DC0FDE3308F0DDE36091310579
:101AA00070913205809133050E94D307F62EE72E00
:101AB000D82ECD1798F4EC2FF0E0DF01AC53BE4FD9
:101AC0008C91D80111969C91982331F02D2D4F2D9A
:101AD0006E2DCF010E94EE0ACF5FEBCF81E0DD33A8
:101AE00008F080E0DF91CF911F910F91FF90EF9070
:101AF000DF900895AF92BF92CF92DF92EF92FF9264
:101B00000F931F93CF93DF938C01FC01C0818DE075
:101B1000C89FC02D1124DDE0DC0FDE3308F0DDE3CB
:101B2000E0903205F0903305D09031056D2D7E2D7B
:101B30008F2D0E94D307C62EB72EA82E6091340594
:101B40006D0D7E2D8F2D0E94D307F62EE72ED82EF9
:101B5000CD17B8F48C2F90E0FC01EC53FE4F308190
:101B6000F8012181232359F030FF04C02D2D4F2D82
:101B70006E2D03C02A2D4C2D6B2D0E94EE0ACF5FD7
:101B8000E7CF81E0DD3308F080E0DF91CF911F9156
:101B90000F91FF90EF90DF90CF90BF90AF9008959E
:101BA000BF92CF92DF92EF92FF920F931F93CF934A
:101BB000DF937C01FC01C0818DE0C89FC02D112402
:101BC000DDE0DC0FDE3308F0DDE3C0903205B090DD
:101BD00033052091340530E4D32E3D2D329F312D35
:101BE0001124D32ECD1738F50C2F10E0F801EC534B
:101BF000FE4F9081F70181818923D9F0F801EE0F22
:101C0000FF1FE65BFE4F6081D69EB001112495E078
:101C1000759567959A95E1F780913105680F7C2D50
:101C20008B2D0E94D307462F282F672FC8010E94B3
:101C3000EE0ACF5FD7CF81E0DD3308F080E0DF919F
:101C4000CF911F910F91FF90EF90DF90CF90BF90B9
:101C50000895DF92EF92FF920F931F93CF93DF933C
:101C60008C01DC01CC918DE0C89FC02D1124DDE0FA
:101C7000DC0FDE3308F0DDE3E0903105F090320553
:101C8000D090330560913405669566956695809190
:101C90003505909136050E94D7070E94120880589A
:101CA00087FD8195880F282F3D2D239F212D1124FD
:101CB000822FB7010E94D307F62EE72ED82ECD171C
:101CC00098F4EC2FF0E0DF01AC53BE4F8C91D801BB
:101CD00011969C91982331F02D2D4F2D6E2DCF0113
:101CE0000E94EE0ACF5FEBCF81E0DD3308F080E0A9
:101CF000DF91CF911F910F91FF90EF90DF900895AA
:101D0000DF92EF92FF920F931F93CF93DF93EC013B
:101D1000FC01EC53FE4F9081692381F1D090320594
:101D20000091330510913105E12EF12C0E945830BD
:101D3000282FC7018C549F4F68E671E00E94B12F95
:101D40008E199F0997FD039695958795959587958B
:101D50002370612F289F600D11247D2D802F0E94FC
:101D6000D307462F282F672FCE01DF91CF911F91E8
:101D70000F91FF90EF90DF900C94EE0ADF91CF91DE
:101D80001F910F91FF90EF90DF900895CF92DF9217
:101D9000FF920F931F93CF93DF938C01FC01C281BD
:101DA000C1111DC06091340520E1620F08F46FEF8E
:101DB00080913505909136050E94D7076AE070E062
:101DC0000E949D2F892B59F50E9458306DE370E0D9
:101DD0000E94B12FF80161810E94800E20C0FC0199
:101DE0008081CDE08C9FC02D11249DE0F92EFC0E4A
:101DF000FDE3FF1510F48DE3F82ED0E0CF2CD12CAD
:101E0000CC15DD053CF4F8016181CE010E94800E05
:101E10002196F6CFC1E0FCE3FF1508F4C0E08C2F5B
:101E2000DF91CF911F910F91FF90DF90CF90089598
:101E30001F93CF93DF93FC01EC53FE4F208162236D
:101E4000A9F0EC010E945830182F0E945830612FE1
:101E5000782F809133050E94D307462F282F672FB4
:101E6000CE01DF91CF911F910C94EE0ADF91CF91BB
:101E70001F910895CF92DF92FF920F931F93CF93FC
:101E8000DF938C01FC01C281C1111DC0609134053A
:101E900020E1620F08F46FEF8091350590913605CF
:101EA0000E94D70765E070E00E949D2F892B59F5AD
:101EB0000E9458306DE370E00E94B12FF8016181FB
:101EC0000E94180F20C0FC018081CDE08C9FC02DA6
:101ED00011249DE0F92EFC0EFDE3FF1510F48DE3B7
:101EE000F82ED0E0CF2CD12CCC15DD053CF4F80138
:101EF0006181CE010E94180F2196F6CFC1E0FCE36C
:101F0000FF1508F4C0E08C2FDF91CF911F910F9146
:101F1000FF90DF90CF900895E0916303F091640308
:101F200009942F923F924F925F926F927F928F927D
:101F30009F92AF92BF92CF92DF92EF92FF920F9358
:101F40001F93CF93DF93CDB7DEB72B970FB6F894DF
:101F5000DEBF0FBECDBF3C01DC018C910DE0809F48
:101F6000002D1124BDE0B00FB987B73410F0E6E4BE
:101F7000E987D30112968C91882361F040E060E0FC
:101F800080E00E948C0F86E4E8ECF3E0DF011D9214
:101F90008A95E9F710E0F985EF2FF0E0FB87EA87F3
:101FA0008EE0482ECE0101965C019AEA292E8A85A0
:101FB0009B85081719070CF060C0C80165E070E048
:101FC0000E94B12F7B014C01489EF001499EF00D0B
:101FD0001124E853FC4FE60FF71F5080A5010E9423
:101FE000CB0A382E65018C2D8A19831508F032C072
:101FF000D601EC91F0E0EC53FE4F9081F30181812A
:10200000892321F1252D35E5231B08F420E0622DDD
:10201000621B70913205222D352D230F08F42FEF0E
:102020003091330582E0289F200D11242E5F239FDD
:10203000212D1124822F0E94D307462FD6019C9177
:10204000282F672F892F90E00E94EE0ABFEFCB1A4E
:10205000DB0AC9CF252D31E0231B08F420E0489C82
:10206000C001499C900D112488539C4FFC01EE0D3A
:10207000FF1D20830F5F1F4F9ACF81E09985963413
:1020800008F080E02B960FB6F894DEBF0FBECDBFF0
:10209000DF91CF911F910F91FF90EF90DF90CF9044
:1020A000BF90AF909F908F907F906F905F904F9078
:1020B0003F902F900895AF92BF92CF92DF92EF9210
:1020C000FF920F931F93CF93DF93CDB7DEB728977F
:1020D0000FB6F894DEBF0FBECDBF8B01FB0182812E
:1020E000882349F0AE014F5F5F4F608181810E947C
:1020F000CB0AD82E01C0D12CC0909B03ED2CF12C23
:10210000C7018C0D911D099764F188E090E05C0196
:10211000AE18BF08B70164567C4FA5018CE993E067
:102120000E946830B7016C557C4FA50184EA93E0AA
:102130000E946830A501440F551FB701660F771F35
:102140006C547C4F84EB93E00E946830B701645577
:102150007C4FA5018CEA93E00E946830CA94C0923B
:102160009B03F0909B03DE01119640E0842F8F0DBE
:10217000D41609F190E05D91252F30E0BC01655641
:102180007C4FF901EE0FFF1FE65BFE4FE080FB0185
:10219000E182220F331FF901E55BFE4F2081FB0135
:1021A0002187518B880F991FFC01E556FC4F128E39
:1021B000118E4F5FDBCF80939B03809130058C7F26
:1021C000843519F4C8010E94040A81E028960FB6EC
:1021D000F894DEBF0FBECDBFDF91CF911F910F915D
:1021E000FF90EF90DF90CF90BF90AF90089508954B
:1021F0000C94F7100E94F8100C9451034F925F92C8
:102200006F927F928F929F92AF92BF92CF92DF9206
:10221000EF92FF92CF93DF936091C4037091C50357
:102220008091C6039091C7030E9483256B017C01B6
:102230000E9468254B015C016093C4037093C50341
:102240008093C6039093C703A0919B03EBE9F3E04F
:102250008A2F90E04FEF5FEF60E070E04C195D096E
:102260006E097F09A91799F0218D328D2901612C02
:10227000712C441555056605770510F4815004C08E
:102280002C0D3D1D328F218F9F5F3296EBCF8093B7
:102290009B03D0910E04D11108C0C09130058C2F42
:1022A000837019F0C695C69501C0C0E08091010207
:1022B0008130E9F038F0823009F4C7C0833009F486
:1022C000D1C0E1C01092020280923505909236058D
:1022D000A0923705B092380589E2EBE9F3E0A9E373
:1022E000B5E001900D928A95E1F781E0B8C0809148
:1022F0000502C8130DC020913005237030E04091D5
:10230000060250E081E02417350719F480E001C08F
:1023100081E08170809304024C2F50E048315105D8
:1023200008F081C0FA01EA5AFF4F0C94E42F882389
:1023300009F479C040E060E080E00E948C0F73C037
:1023400082E092E00E943B0D6FC082E092E00E942A
:102350007A0D6AC082E092E00E94D00D65C082E0F2
:1023600092E00E94290E60C082E092E00E943C0C44
:102370005BC082E092E00E94E10B56C082E092E0F6
:102380000E94740B51C082E092E00E94400C4CC04D
:1023900082E092E00E94440C47C082E092E00E94FA
:1023A000480C42C082E092E00E944C0C3DC082E0AA
:1023B00092E00E94780B38C082E092E00E94E50B28
:1023C00033C082E092E00E94E90B2EC082E092E0EE
:1023D0000E947C0B29C082E092E00E94B60C24C0CF
:1023E00082E092E00E94BA0C1FC082E092E00E945C
:1023F000BE0C1AC082E092E00E94C60E15C082E0B8
:1024000092E00E943A0F10C082E092E00E94910F89
:102410000BC082E092E00E94330D06C082E092E0A1
:102420000E94370D01C080E0909102029F5F90935F
:102430000202811128C082E080930102809104028F
:10244000811121C0CC2351F01EC0C09305028091A0
:1024500030058370809306020E94E90A83E080932E
:10246000010211C0609135057091360580913705E4
:10247000909138050E948325603171058105910591
:1024800010F010920102D11110C0DF91CF91FF9096
:10249000EF90DF90CF90BF90AF909F908F907F9004
:1024A0006F905F904F900C94FA10DF91CF91FF9056
:1024B000EF90DF90CF90BF90AF909F908F907F90E4
:1024C0006F905F904F900895E0915F03F0916003EB
:1024D000099510923905E2E5F5E08FEF9FEF8193C2
:1024E000919325E0E236F207D1F710929B03E4EBDB
:1024F000F3E08FEF9FEF8193919323E0E43CF207A9
:10250000D1F70E947123811104C00E9411240E94FE
:10251000B80A0E94A80A809130058C7F11F40C94AF
:10252000B80A0895CF93C82F882329F040E060E0CF
:1025300080E00E948C0FC0930E04CF9108952091EB
:10254000300591E09227909330051092010281119D
:102550000C94B00A089581E00C949F12909130057C
:10256000937091F0811102C0946007C0883110F01F
:102570009C6503C0880F880F982B909330051092AC
:10258000010261110C94B00A089561E00C94AE123E
:10259000682F90913005969596959F5F983110F42D
:1025A000892F01C081E00C94AE1281E00C94C81216
:1025B000682F9091300596959695915011F0892F3E
:1025C00001C087E10C94AE1281E00C94D812909176
:1025D0003005937049F08093310560933205409344
:1025E000330521110C94B00A0895A0E3B5E01196CB
:1025F000EC911197F0E0282F13964C9113971296B7
:102600006C91CF0108960C94E71281E00C94F512BE
:10261000A0E3B5E01196EC911197F0E0282F139606
:102620004C91139712966C91CF0108970C94E71276
:1026300081E00C940813E0E3F5E0628120E1620F91
:1026400008F46FEF9181282F4381892F90E00C943B
:10265000E71281E00C941B13E0E3F5E0628120E1D6
:10266000621B08F460E09181282F4381892F90E05C
:102670000C94E71281E00C942C13E0E3F5E0438125
:1026800020E1420F08F44FEF9181282F6281892FBA
:1026900090E00C94E71281E00C943D13E0E3F5E048
:1026A000438120E1421B08F440E09181282F6281A0
:1026B000892F90E00C94E71281E00C944E13209146
:1026C000340530E1230F08F42FEF209334058111F6
:1026D0000C94B00A089581E00C945F1320913405A6
:1026E00030E1231B08F420E02093340581110C9481
:1026F000B00A089581E00C946E1360E080E50E94BA
:102700000B1561E080E50C940B15CF930E94251802
:1027100060E080E50E94E113C0E021E041E061E07B
:102720008C2F0E946F14CF5FCD33B9F760E080E546
:102730000E943D1561E080E5CF910C943D156093BA
:10274000E2064093E30624E630E042E050E062EE29
:1027500076E0880F0E94B21821E0892B09F020E072
:10276000822F0895EF92FF921F93CF93DF937B0107
:10277000182F110FC0E0D0E0C093E206D701AC0FD4
:10278000BD1FE3EEF6E08D91819386E0E33FF8070D
:10279000D1F724E630E041E150E062EE76E0812FAF
:1027A0000E94B218892B31F46096C03CD10521F704
:1027B00081E001C080E0DF91CF911F91FF90EF9009
:1027C00008951F93CF93DF93C82FD62F45EC6EEF5C
:1027D0000E949F1340E06DEF8C2F0E949F1310E02A
:1027E00040E0612F8C2F0E949F131F5F1831C1F7AB
:1027F00045EC6EEF8C2F0E949F1341E06DEF8C2F04
:102800000E949F1310E040E0612F8C2F0E949F13C5
:102810001F5F103CC1F745EC6EEF8C2F0E949F1399
:1028200043E06DEF8C2F0E949F134FEF61E08C2FE0
:102830000E949F1380E4D89FA0011124416060E0B2
:102840008C2F0E949F138FE39CE90197F1F700C042
:102850000000DF91CF911F9108958D33910520F5F0
:10286000880F991F880F991FFC01E15EFD4F52816F
:102870003381808183707181E82FF0E0A0EC8A9F22
:10288000C00111248E599A4FDC01A70FB11D6C9322
:10289000DC01A50FB11D4C93DC01A30FB11D2C93DE
:1028A000EF5BFB4F81E080830895FF920F931F93AE
:1028B000CF93DF93182F062FF42EC0E0D0E02F2DFA
:1028C000402F612FCE010E942D142196CD33D105CA
:1028D000B1F7DF91CF911F910F91FF900895CF93A2
:1028E000DF9334E0839FC0011124FC01E15EFD4FC2
:1028F0008081837051819281C381A52FA695A69571
:10290000A695392F369536953695EC2FE695E695B2
:10291000E6955770F92FF770C77090E0B0E0D8E1F6
:10292000662391F0D89FB001D99F700D11246F5E7E
:102930007B4FA60FB71F61E070E001C0660F5A958C
:10294000EAF75C91652B12C0D89FB001D99F700D3A
:1029500011246F5E7B4FA60FB71F61E070E001C0CE
:10296000660F5A95EAF760955C9165236C93632F27
:1029700070E038E1389FD001399FB00D1124AF5E6F
:10298000BB4FA60FB71F442349F041E050E001C000
:10299000440FFA95EAF73C91432B09C041E050E01F
:1029A00001C0440FFA95EAF740953C9143234C93BC
:1029B0004E2F50E0222399F028E1289FF001299F13
:1029C000F00D1124EF5EFB4FE40FF51F21E030E026
:1029D00001C0220FCA95EAF73081232B13C028E1EA
:1029E000289FF001299FF00D1124EF5EFB4FE40FAB
:1029F000F51F21E030E001C0220FCA95EAF72095CB
:102A0000308123232083FC01E15FFB4F21E0208301
:102A1000DF91CF910895EF92FF921F93CF93DF93B1
:102A2000C62FD0E09E012F5B3B4F7901F9019081C9
:102A30009923D9F0182F45EC6EEF0E949F1341E0C7
:102A40006DEF812F0E949F1380EC8C9FB0018D9FB2
:102A5000700D11246E597A4F812F0E94B21381118B
:102A600004C0C15FDB4F81E08883F7011082DF91F2
:102A7000CF911F91FF90EF900895CF92DF92FF9238
:102A80000F931F93CF93DF93262F30E0A901415F6F
:102A90005B4F6A01FA01908191110AC0F601108220
:102AA000DF91CF911F910F91FF90DF90CF9008950C
:102AB000C62FF82E45EC6EEF0E949F1340E06DEF9D
:102AC0008F2D0E949F13F8E1CF9FE001112400E0B9
:102AD00010E0F801EC0FFD1FEF5EFB4F4081602F0F
:102AE0008F2D0E949F130F5F1F4F0831110589F72B
:102AF000D5CF882311F0FA0101C0FB0109940F938F
:102B00001F93CF93FB01C281CC2309F450C08C01E9
:102B10000E94C7228272F801E25CFC45E431F105B3
:102B200008F048C0E259FF4F0C94E42F0E94AB120A
:102B300040C044EE52E165ED72E104C045ED52E162
:102B400064EE72E10E94791534C048E153E165E01A
:102B500073E1F8CF45E053E168E173E1F3CF4AE375
:102B600053E169E273E1EECF49E253E16AE373E1D5
:102B7000E9CF4CE553E16BE473E1E4CF4BE453E17F
:102B80006CE573E1DFCF4AE753E16BE673E1DACF3F
:102B90004BE653E16AE773E1D5CF81E005C084E0FD
:102BA00003C089E001C08EE00E94C51202C0C1E0EE
:102BB00001C0C0E08C2FCF911F910F910895AF926B
:102BC000BF92CF92DF92EF92FF920F931F93CF931A
:102BD000DF937C015B01C42FD22FFC01828188230B
:102BE000F9F0409345040E945C259093440480933F
:102BF000430480E28C0F883008F06EC0C77081E01B
:102C000001C0880FCA95EAF7DF91CF911F910F910C
:102C1000FF90EF90DF90CF90BF90AF900C94EE1AA2
:102C200080914504481335C0809143049091440439
:102C30000E9474256C01B701C5010E942E20C816A0
:102C4000D90638F510E21D0FCD17B9F080E28C0FD0
:102C5000883040F4C77081E001C0880FCA95EAF758
:102C60000E94F51A183058F581E09D2F977001C029
:102C7000880F9A95EAF70E94EE1A802F0E94DB1ABD
:102C8000183050F5D77081E001C0880FDA95EAF767
:102C90000AC080E28C0F8830F8F4C77081E001C070
:102CA000880FCA95EAF7DF91CF911F910F91FF909E
:102CB000EF90DF90CF90BF90AF900C94F51A802FDB
:102CC000DF91CF911F910F91FF90EF90DF90CF9008
:102CD000BF90AF900C94DB1ADF91CF911F910F91B1
:102CE000FF90EF90DF90CF90BF90AF9008950F933B
:102CF0009C01CB01233F4CE5340731F188F4283D9A
:102D0000FCE53F07D9F0293D4CE5340779F1273D33
:102D10003C45A9F506E221EE41EE67ED7CE52BC0CE
:102D2000253FFCE53F07E1F0A8F0263F3C4539F59B
:102D300007E225EE46EE66EF7CE51DC007E225EED4
:102D400045EE68ED7CE517C006E221EE40EE63EF4C
:102D50007CE511C007E225EE44EE64EF7CE50BC094
:102D600006E221EE42EE65EF7CE505C008E221E0D7
:102D700045EE69ED7CE50E94DF1580E008C0FC01AE
:102D80008281882319F01092450401C081E00F91DF
:102D90000895CF93DF93EC01FB018281882309F42E
:102DA0001FC1C230FCE5DF0708F41BC1C6319CE53A
:102DB000D90738F09E012A5F3C452930310508F0DB
:102DC00010C10E9484239093FB068093FA06C031C1
:102DD000ECE5DE0709F4C3C008F041C0C8308CE55B
:102DE000D80709F49AC0F0F4C430ECE5DE0709F422
:102DF00087C068F4C2308CE5D80709F477C0C330C7
:102E0000DC4509F0E3C08091FA06826076C0C630E6
:102E1000ECE5DE0709F46EC008F07BC08091FA068D
:102E200088606BC0CC308CE5D80709F485C068F4A5
:102E3000CA30ECE5DE0709F474C008F079C00E94DE
:102E4000751D8091FA06806858C0CE308CE5D80791
:102E500009F476C008F07FC08091FA068BC0CB3FA2
:102E6000ECE5DE0709F44FC018F5C3318CE5D8074F
:102E700009F47DC078F4C131ECE5DE0709F473C0D4
:102E8000C231DC4509F0A2C00E94751D8091FA068E
:102E90008F7733C0C5318CE5D80709F472C008F4C8
:102EA00086C0CA3FDC4509F091C08091FB063EC058
:102EB000CF3FFCE5DF0709F45FC058F4CD3F9CE548
:102EC000D90709F444C008F43FC08091FB06826032
:102ED0002DC0C130FDE5DF0709F475C008F45DC001
:102EE000C230DD4509F072C080E06EC08091FA0604
:102EF000816003C08091FA0680618093FA0666C003
:102F00008091FA0611C08091FB0682608093FB06D7
:102F10005DC08091FA068062F0CF8091FA068064ED
:102F2000ECCF8091FA0688608460E7CF8160EECFB5
:102F30008091FA068E7FE1CF8091FA068D7FDDCFFA
:102F40008091FA06877FD9CF8091FB0618C08091C7
:102F5000FB068D7FDBCF8091FA068F7ECECF8091EE
:102F6000FA068F7DCACF8091FA068F7BC6CF8091FB
:102F7000FA06877F8B7FC1CF8091FB068D7F8E7F86
:102F8000C5CF8091FA0682FB222720F991E0922793
:102F900090FB82F990FB83F9B0CF8091FB06982FCC
:102FA000909591708E7F892B90FB81F9AFCF0E9415
:102FB000751D8091FA0687FB222720F991E0922760
:102FC00090FB87F99ACF81E00E9413248091FA0642
:102FD0009091FB060E9495230E94751D80E001C020
:102FE00081E0DF91CF910895CF93DF9386319C45A7
:102FF00041F5EB010E94C722982F8A812091070298
:1030000030910802882379F09A7A81E009F480E00F
:1030100080934604911102C069E201C065E3C901D1
:103020000E94AE240AC080914604811102C069E268
:1030300001C065E3C9010E94B9240E94082380E011
:1030400001C081E0DF91CF9108951092B9008CE02A
:103050008093B8000895EF92FF920F931F93CF9340
:10306000DF93182FEB011092BC0084EA8093BC0020
:103070000E945C257C018091BC0087FD0EC0CF3F83
:103080008FEFD807C1F30E945C258E199F098C171A
:103090009D0788F38EEF9FEF2EC08091B900887F47
:1030A000883041F08091B900887F803119F08FEF2E
:1030B0009FEF21C01093BB0084E88093BC000E9466
:1030C0005C258C018091BC0087FD0CC0CF3F8FEF49
:1030D000D807C1F30E945C25801B910B8C179D07BC
:1030E00088F3D8CF8091B900887F883111F080347F
:1030F000F1F680E090E0DF91CF911F910F91FF906A
:10310000EF9008950F931F93CF93DF93EB0180937C
:10311000BB0084E88093BC000E945C258C018091F8
:10312000BC0087FD0EC0CF3F8FEFD807C1F30E94D0
:103130005C25801B910B8C179D0788F38EEF9FEF0A
:103140000CC02091B900287F81E090E0283211F472
:1031500080E090E0919581959109DF91CF911F9149
:103160000F910895CF92DF92EF92FF920F931F93EA
:10317000CF93DF936B018A017901B9010E942B186B
:10318000E6010C0D1D1DC017D10761F424E9209341
:10319000BC00DF91CF911F910F91FF90EF90DF90D6
:1031A000CF90089597FDF2CFB70189910E948218C0
:1031B000EACF90934C0480934B040895E0914B0424
:1031C000F0914C04309721F00190F081E02D0994AA
:1031D00080E00895E0914B04F0914C04309711F495
:1031E00080E008950190F081E02D09950895E09127
:1031F0004B04F0914C04309799F020911B0222234C
:1032000059F02091FA0627FF07C0DC012C91119696
:103210002C93119725E02C930280F381E02D0994E3
:103220000895E0914B04F0914C04309739F022E07E
:10323000DC012C930480F581E02D09940895209100
:10324000490430914A042817390771F090934A04D1
:1032500080934904E0914B04F0914C04309721F0A5
:103260000680F781E02D099408952091470430915C
:1032700048042817390771F0909348048093470455
:10328000E0914B04F0914C04309721F00084F185DB
:10329000E02D0994089585B7806885BF85B780685B
:1032A00085BF089508950C9452190C9453190C94E9
:1032B00052190C9452190E944B190E9457190C94E0
:1032C000551981E008950C9461190E9453250E94BC
:1032D00029060E94FF250C9459197F928F929F9284
:1032E000AF92BF92CF92DF92EF92FF920F931F9314
:1032F000CF93DF93CDB7DEB72A970FB6F894DEBF32
:103300000FBECDBF0E947B060E946319811111C0C0
:103310008FEF89838A831B820E945C258160782FCE
:103320009D838C8349815A816B818D810E941D1AF6
:103330004FC04EE4A42E44E0B42E00E010E0702E06
:10334000802F0E9412066C01F501819091905F011F
:10335000882699268114910431F40F5F1F4F0530A0
:10336000110569F7D5CF8091EB0481FD0E941B0602
:1033700080E0EE24E394F12C94012E213F21232BB5
:1033800009F18E837F82CE20DF2081E0CD2809F4F1
:1033900080E088870E945C258160782F9A878987E2
:1033A0004E815F8168858A850E941D1A000F111F5A
:1033B000F801E25BFB4F80819181E826F926F182DA
:1033C000E08206C08F5FEE0CFF1C8E30A9F6C5CFE1
:1033D0000E94AE270E94DE1890914D048917C9F013
:1033E0000E94DE1880934D042A960FB6F894DEBF33
:1033F0000FBECDBFDF91CF911F910F91FF90EF9046
:10340000DF90CF90BF90AF909F908F907F900C9463
:10341000C4032A960FB6F894DEBF0FBECDBFDF916E
:10342000CF911F910F91FF90EF90DF90CF90BF90C1
:10343000AF909F908F907F900895CF93DF93CDB7FB
:10344000DEB72B970FB6F894DEBF0FBECDBF4F830C
:10345000588769877A878B87DE01119686E0FD01A0
:1034600011928A95E9F785E0FE01379601900D9259
:103470008A95E1F749815A816B817C818D819E819A
:103480000E9431202B960FB6F894DEBF0FBECDBF41
:10349000DF91CF910895FC01808191810E94882263
:1034A0000895CF93882309F450C0C82F8CEF8C0F58
:1034B000813AD0F46C2F80910702909108020E940B
:1034C0002E24882349F06C2F8091070290910802E6
:1034D0000E94B9240E9408236C2F809107029091CA
:1034E00008020E94AE240CC080E28C0F883058F491
:1034F000C77081E001C0880FCA95EAF70E94CA220E
:10350000CF910C940823EBE5EC0FE33040F4F0E0AE
:10351000EB56FC4F808190E0CF910C941F19E8E5A9
:10352000EC0FE73150F4F0E0EE0FFF1FE959FC4FCC
:1035300080819181CF910C943519C03F30F08C2F50
:103540000E94A326CF910C949027CF9108958823B1
:1035500089F19CEF980F913A40F4682F809107020F
:10356000909108020E94B9240DC090E2980F983003
:1035700058F4877091E001C0990F8A95EAF7892F76
:103580000E94D0220C9408239BE5980F933020F4DE
:1035900080E090E00C941F1998E5980F973120F483
:1035A00080E090E00C943519803F20F00E940B27BA
:1035B0000C9490270895CF93C82F0E94511AC933B5
:1035C00049F42FEF87EE93E0215080409040E1F7DF
:1035D00000C000008C2FCF910C94A71A882321F0F3
:1035E0000E94CA220C9408230895882321F00E9487
:1035F000D0220C9408230895CF92DF92EF92FF928D
:103600000F931F93CF93DF937C01D62FC72FFC011D
:10361000058102950F70128111110E94E7220E940C
:10362000C022882399F0112389F08C2F807F803469
:1036300021F080E28D0F883048F082E00E94522312
:103640000E94C02291E0D82ED92601C0D12CCC2EC8
:10365000C2948FE0C8228C2D90E08C30910508F048
:10366000B6C1FC01EE57FF4F0C94E42F8C2F807FE6
:10367000CF70882311F0C295C07F112399F0CC231D
:1036800009F491C180E28D0F883010F0D11104C08F
:103690008C2F0E94CA2203C08C2F0E94DA220E9423
:1036A000082381C18D2F0E94A71ACC2309F48FC152
:1036B00080E28D0F883010F0D11104C08C2F0E9451
:1036C000D02203C08C2F0E94E0220E9408237FC1D9
:1036D0008C2F807FCF70803211F0C295C07FDD23A8
:1036E00019F0D130C9F022C0112371F0002341F04C
:1036F000013031F40E94ED228C2B0E94F52267C12B
:103700000E94ED228C2B1DC0002319F0013009F41A
:103710005EC10E94FE2225C0112321F0063008F070
:1037200056C10EC0053008F052C11BC0112361F014
:10373000002331F0F701858180FF35C18F708583CB
:103740008C2F0E94EE1A43C1002359F0D93309F09F
:103750003BC1FFEF07EE13E0F15000401040E1F7EE
:1037600031C18C2F0E94F51A32C18C2F8695869517
:10377000837019F0813061F02AC1112321F08D2F5F
:103780009C2F937002C080E090E00E941F1927C117
:10379000112321F08D2F9C2F937002C080E090E0C8
:1037A0000E9435191CC18D2F112319F00E94A326E8
:1037B00002C00E940B270E94902711C18C2F83709A
:1037C00009F047C0111107C12D2F229526952770AA
:1037D000220F220F6D2F6F70862F90E0A0E0B0E0D7
:1037E000022E04C0880F991FAA1FBB1F0A94D2F78C
:1037F000D4FF10C04FE050E060E070E004C0440F20
:10380000551F661F771F2A95D2F7409550956095F2
:10381000709503C040E050E0BA01C695C695C370EC
:103820008A019B01082B192B2A2B3B2BC901B801BC
:10383000C23049F058F4C13019F00E940521CBC0C4
:103840000E94F320C8C00E941721C5C00E94F12029
:10385000C2C0112319F08C2F817001C08695882376
:1038600009F4B9C02D2F229526952770220F220F1B
:103870006D2F6F70862F90E0A0E0B0E0022E04C0A4
:10388000880F991FAA1FBB1F0A94D2F7D4FF10C03C
:103890004FE050E060E070E004C0440F551F661F29
:1038A000771F2A95D2F7409550956095709503C083
:1038B00040E050E0BA01C695C695C3708A019B01ED
:1038C000082B192B2A2B3B2BC901B801C23049F018
:1038D00058F4C13019F00E94CA217DC00E94B8215D
:1038E0007AC00E94DC2177C00E942B2174C0CF7067
:1038F000112339F08C2F0E9451218D2F0E94EE1A36
:103900006AC08D2F0E94F51A8C2F0E94722163C00D
:10391000D23F01F128F4D03F41F0D13FA1F03FC0A8
:10392000D33FF9F0D43F39F13AC0112341F00530CB
:1039300008F04DC08C2F8F710E94972148C006302F
:1039400008F045C0F7CF112339F08C2F8F710E94FA
:1039500051213DC01123C9F38C2F8F710E94722118
:1039600036C0112329F08C2F8F710E943C212FC06B
:103970000E9437212CC0112349F0CF718C2F0E9457
:10398000512163E08C2F0E943D2321C081E00E94E1
:1039900052230230E0F082E00E94522318C011232B
:1039A00031F0002391F28D2F0E94511A10C0002394
:1039B00099F2D93349F41FEF27EE33E0115020403C
:1039C0003040E1F700C000008D2F0E94A71A88EF59
:1039D0008C0D843020F40E94DE180E94C403DD2088
:1039E000C9F00E94BC2280FD15C0F70112820E941E
:1039F000B6220E945121C7010E942B1D0E94B622AF
:103A0000DF91CF911F910F91FF90EF90DF90CF90BA
:103A10000C947221DF91CF911F910F91FF90EF9045
:103A2000DF90CF9008950F931F93CF93DF93EC0116
:103A3000688179818A810E9493228C010E94EE2103
:103A40000E94DF20B801CE010E94FC1ADF91CF91C5
:103A50001F910F910895CF93DF93EC019881898195
:103A60002B813C81232B31F08F3F31F481E09F3F4C
:103A700019F403C081E001C080E080FD19C0CE01CF
:103A80000E94DD0381110CC00E94C022882381F0B6
:103A90008A81882369F082E0DF91CF910C945223D0
:103AA000CE010E94131DCE01DF91CF910C94A20391
:103AB000DF91CF9108950E94E7220E94EA220E949E
:103AC00008230E94C1280E94902780E090E00E9475
:103AD0001F1980E090E00C943519809107029091B5
:103AE00008020E94C4240C945B1D0E94D7220C94EF
:103AF0006D1DE92FE295EF704E2F50E0FA013297DD
:103B0000EE30F105B0F4E257FF4F0C94E42F803F04
:103B100091F018F4883E68F40EC0843F51F40BC055
:103B2000883E48F0813F29F406C093FB882780F93E
:103B3000089580E0089581E008950E9488220E94FF
:103B4000791D0895CF93DF9300D000D01F92CDB799
:103B5000DEB70F900F900F900F900F90DF91CF91E5
:103B60000895CF93DF9300D000D000D0CDB7DEB75B
:103B700026960FB6F894DEBF0FBECDBFDF91CF9172
:103B800008951F93CF93DF93C091590416E080915D
:103B90005A04C81799F0D0E01C9FF0011D9FF00D4A
:103BA0001124E55AFB4F40815181628173818481E8
:103BB00095810E94B11D2196C770E9CFDF91CF9109
:103BC0001F91089540918B0450918C0460918D0455
:103BD00070918E0480918F04909190040C94B11D8B
:103BE0000F931F93CF93DF938091900482958F70F2
:103BF00009F05DC080918D04882309F458C080913C
:103C0000590410915A0460918B0470918C04C091F6
:103C10008E04D0918F0491E06F3F09F090E0292F3E
:103C200006E0811709F443C0209721F07F3F21F07F
:103C300030E003C031E001C0322F90E030FD34C0ED
:103C4000089FF001099FF00D1124DF01A55ABB4F19
:103C500011963C911197371327C03C91361324C01D
:103C600012963C91129731111FC013964D915C91A1
:103C700014974C1B5D0B483C5105B0F480919004A7
:103C80008F70806180939004E05AFB4F80818F7029
:103C9000806180838BE894E00E942B1DDF91CF919F
:103CA0001F910F910C94C11D01968770BACFDF91BF
:103CB000CF911F910F9108959F92AF92BF92CF9293
:103CC000DF92EF92FF920F931F93CF93DF93CDB7C5
:103CD000DEB761970FB6F894DEBF0FBECDBF8C0183
:103CE00085E0F801DE011D9601900D928A95E1F7BD
:103CF000F80140815181E28090918B0460918C04A5
:103D000020918E0430918F042115310531F06F3FE1
:103D100031F481E09F3F19F403C081E001C080E0ED
:103D2000F82FF1709F2E80FD46C1F801A380B4806A
:103D30008BE8C82E84E0D82EF0908D04F501E21BAC
:103D4000F30BFF2009F4DFC080919004E83CF105FB
:103D500008F09BC0282F207F09F052C0561313C0D3
:103D6000491311C0FE2CE1100EC08F70806180934A
:103D700090040E94E21DC6010E942B1D80919004B8
:103D8000F801858358C1AB2831F05F3F31F481E001
:103D90004F3F19F403C081E001C080E080FD03C003
:103DA00081E08E2502C080E090E0F82FF170FF2EB8
:103DB00080FF1CC08091590420915A0436E082177C
:103DC00009F417C190E0389FF001399FF00D1124DC
:103DD000E55AFB4F6181561306C06081461303C04C
:103DE0006281E61203C001968770E9CFFE2CEE20B7
:103DF00009F421C1809190048160809390045AC09D
:103E0000561306C0491304C0E11002C0F8019FC058
:103E10004D875E878D859E850E949D1D882379F143
:103E2000EE2069F120919004822F82958F7090E0AE
:103E3000029774F080918B0490918C0498878F8303
:103E40001986BB86AA862C87CE0107960E942B1D59
:103E500086E0F801ABE8B4E001900D928A95E1F7B5
:103E60000E94F01D0E94E21D0DC0561729F14D87DA
:103E70005E878D859E850E949D1D81112CC0C80185
:103E80000E942B1DFF24F394D6C0282F207F69F7B2
:103E90007A2DB98AA88A6E2D89890E94A21D8BE885
:103EA00094E00E942B1D86E0F60111928A95E9F7B5
:103EB0000E94E21DF12CBFC04913D9CFE110D7CF2A
:103EC000F8018583C8010E942B1D86E0F60111923E
:103ED0008A95E9F7B0C0EE2091F220919004822FEC
:103EE00082958F7090E002970CF4B2CF80918B0492
:103EF00090918C049A8389831B82BD82AC822E832D
:103F0000CE010196A3CFE83CF10508F047C0FE2C96
:103F1000EE2009F4B4CF561330C049132EC02091BF
:103F2000900420FD21C0822F82958F70482F50E091
:103F300041155105C9F0F80125834F30510541F075
:103F40008F5F982F9295907F822F8F70892B85831A
:103F5000C8010E942B1D86E0F801ABE8B4E0019097
:103F60000D928A95E1F742C086E0F801ABE8B4E033
:103F700001900D928A95E1F75EC04D875E878D8531
:103F80009E850E949D1D811163CF80919004816068
:103F900080939004C8010E942B1D4DC07A2DB98AD0
:103FA000A88A6E2D89890E94A21D86E0F6011192D1
:103FB0008A95E9F71BC0EE2009F461CF4D875E8733
:103FC0008D859E850E949D1DF82E882309F457CF6C
:103FD00086E0F801ABE8B4E001900D928A95E1F734
:103FE0008BE894E00E944B1A0E94F01D0E94E21D93
:103FF00022C04D875E878D859E850E948822292F4D
:1040000022952F70223028F49F7039F0811105C05D
:104010000BC0243028F49F7049F4805E883020F073
:10402000C8010E942B1D9F2CF92C05C0F801958119
:10403000907F99F7F9CF8F2D61960FB6F894DEBF78
:104040000FBECDBFDF91CF911F910F91FF90EF90E9
:10405000DF90CF90BF90AF909F90089588EC90E054
:1040600008951F93CF93DF93CDB7DEB72C970FB68C
:10407000F894DEBF0FBECDBF4F83588769877A871C
:104080008B879C87CE0107960E945C1E8823D1F007
:104090009F8188852A853B85232B31F08F3F31F422
:1040A00081E09F3F19F403C081E001C080E080FD02
:1040B00047C04F81588569857A858B859C850E948C
:1040C000B11D3EC086E0FE013796DE0111960190DB
:1040D0000D928A95E1F7FF81E8856A857B856115F8
:1040E000710531F0EF3F31F481E0FF3F19F403C077
:1040F00081E001C080E080FD23C020915A0430E0BF
:10410000C9010196877099274091590450E084179E
:104110009507F1F1F983EA837D836C8396E0929FA2
:10412000D001939FB00D1124A55ABB4FFE013196CB
:1041300001900D929A95E1F780935A040E94C11D57
:1041400016E08091590490915A04891771F1189FD3
:10415000C0011124855A9B4F0E945C1E882329F1BF
:10416000E09159041E9FF0011124E55AFB4F408154
:10417000518162817381848195810E94B11D8091FA
:10418000590490E001968770992780935904D9CFFC
:104190000E94751D10925A0410925904EBE8F4E045
:1041A00086E0DF011D928A95E9F72C960FB6F89408
:1041B000DEBF0FBECDBFDF91CF911F91089508954F
:1041C00008950C94E0200C94E1200E94E320609379
:1041D000C2047093C3048093C4049093C5040C94E8
:1041E0005B1D0C94E5200F931F930091C204109166
:1041F000C3042091C4043091C504602B712B822B21
:10420000932B1F910F910C94E5200F931F93009116
:10421000C2041091C3042091C4043091C5046023EA
:104220007123822393231F910F910C94E5200F9308
:104230001F930091C2041091C3042091C4043091D3
:10424000C50460277127822793271F910F910C9433
:10425000E5200C94E0200E9429216093BE04709315
:10426000BF048093C0049093C1040C945B1D60E074
:1042700070E0CB010C942B210F931F9341E050E091
:1042800060E070E08A019B0104C0000F111F221F33
:10429000331F8A95D2F7C901B8011F910F910C9471
:1042A0002B210F931F9341E050E060E070E004C0C9
:1042B000440F551F661F771F8A95D2F78091BE0461
:1042C0009091BF04A091C004B091C1048A019B01E8
:1042D000082B192B2A2B3B2BC901B8011F910F91D9
:1042E0000C942B210F931F9341E050E060E070E0AD
:1042F00004C0440F551F661F771F8A95D2F740955B
:104300005095609570958091BE049091BF04A091E6
:10431000C004B091C1048A019B01082319232A23F8
:104320003B23C901B8011F910F910C942B210F93CE
:104330001F9341E050E060E070E004C0440F551F5F
:10434000661F771F8A95D2F78091BE049091BF04B3
:10435000A091C004B091C1048A019B0108271927CC
:104360002A273B27C901B8011F910F910C942B21DB
:104370000F931F930091BE041091BF042091C004BD
:104380003091C104602B712B822B932B1F910F91C5
:104390000C942B210F931F930091BE041091BF0426
:1043A0002091C0043091C1046023712382239323A0
:1043B0001F910F910C942B210F931F930091BE041A
:1043C0001091BF042091C0043091C104602771276F
:1043D000822793271F910F910C942B2108952EE093
:1043E000929F800D1124E82FE695E695E69587705B
:1043F00051E001C0550F8A95EAF785E0E89FF0018A
:104400001124EF56FB4F20E030E070E04081CB01FB
:10441000022E02C0969587950A94E2F781708195E5
:1044200084278523842781932F5F3F4F25303105D3
:1044300069F708952EE0929F800D1124682F6695EC
:1044400066956695982F977085E0689FB001112456
:1044500040E050E080E0FB01E40FF51FEF56FB4F1A
:10446000208130E0092E02C0369527950A94E2F7A4
:1044700021703327042E01C0220F0A94EAF7822B01
:104480004F5F5F4F4530510531F70895BF92CF928E
:10449000DF92EF92FF920F931F93CF93DF938C01E4
:1044A000C090BE04D090BF04E090C004F090C1045E
:1044B0008091C2049091C304A091C404B091C5043A
:1044C000C82AD92AEA2AFB2ACFE1D0E0D701C601BF
:1044D0000C2E04C0B695A795979587950A94D2F7A8
:1044E00080FD04C0219790F7B12C07C0BC2EB80105
:1044F0008C2F0E9439040197A9F38B2DDF91CF9166
:104500001F910F91FF90EF90DF90CF90BF90089593
:10451000CF93DF93EC010E944622BE010E94390432
:10452000DF91CF9108951F93CF93DF93EB0190918B
:104530005804992321F0CB010E94882213C08823BC
:1045400049F0CB010E944622182F682FCE010E940D
:10455000EF2104C0CB010E941A22182FBE01812F27
:104560000E943904DF91CF911F9108958091C60474
:1045700085958595859508958091C60487700895E1
:104580009091C604977081E009F480E008958091CD
:10459000EA0408959091EA04892B8093EA0408952F
:1045A00080959091EA0489238093EA0408951092FB
:1045B000EA0408959091E904892B8093E904089511
:1045C00080959091E90489238093E90408951092DD
:1045D000E90408951092E80408958091C7040895AD
:1045E00008950C94F0220C94F1229091C70498172E
:1045F00021F08093C7040C94F32208958091C7049E
:10460000882329F01092C70480E00C94F3220895C7
:10461000E0910702F09108028091EA048083E09122
:104620000702F091080290818091E904892B808330
:10463000E0910702F091080290818091E804892BB3
:1046400080838091C704882381F0E0910702F09174
:1046500008029081892B8083809107029091080243
:104660000E94182481110E94FE22809107029091DD
:1046700008020C94F7180C94F02298E0899F90019E
:104680001124262B2093C6040E9451218091C60438
:104690008595859585950C943B231092C60480E002
:1046A0000C943B232091C604809582238093C604FA
:1046B000982F977079F430E0482F082E000C550B96
:1046C0002417350739F08595859585950E947221C7
:1046D0000C944D2308956FEF7FEF80E090E00C94F1
:1046E000BD3080E090E00E94893021E08C3E9E4FFA
:1046F00009F020E0822F089582E090E00C94813050
:1047000083E090E00C948130CF9384E090E00E94AD
:104710008130C82F81E290E00E9481302C2F30E060
:10472000A901582BCA01CF910895CF93C92F682FA3
:1047300084E090E00E949F306C2F81E290E0CF9166
:104740000C949F30AB01BC018FE090E00C94B13031
:10475000AB01BC0183E190E00C94B13060E070E00B
:10476000CB010C94A82360E070E0CB010E94A2234F
:104770000C94AE236CEE7EEF80E090E00E94BD30A2
:1047800060E082E090E00E949F3060E083E090E093
:104790000E949F301092C2041092C3041092C4046D
:1047A0001092C50460E084E090E00E949F3060E0D9
:1047B00081E290E00E949F3060E085E090E00E94FE
:1047C0009F3060E086E090E00E949F306FEF87E0CE
:1047D00090E00E949F3040E050E0BA0188E090E015
:1047E0000E94B13060E08DE090E00E949F3040E098
:1047F00050E0BA0188E190E00E94B13060E087E1CA
:1048000090E00E949F3040E050E0BA018CE190E0DF
:104810000E94B13060E080E290E00E949F300C94F2
:10482000B3230C94BA23682F8EE090E00C949F3051
:10483000FC01329680911B02882331F08091FA06A8
:1048400087FF02C09EE101C096E080E0915028F011
:1048500021912223D9F38F5FF9CF0895662351F177
:1048600020911B022223E9F02091FA0627FF19C0AC
:10487000462F4695469546954E31E0F4677021E007
:1048800030E002C0220F331F6A95E2F7FC01E40F0B
:10489000F11D828190E02823392381E0232B69F4E4
:1048A00009C0FC01329608962191621729F0E81799
:1048B000F907D1F780E0089581E008959C01FC019B
:1048C00032969FEF80E04191461789F09F3F19F49F
:1048D000411101C0982F8F5F8630A9F79F3F39F0B3
:1048E000F901E90FF11D97FDFA9562830895089586
:1048F0009C012A5F3F4FFC014281461301C0128296
:10490000019682179307B9F70895262F26952695C5
:1049100026952E3168F4FC01E20FF11D677021E04D
:1049200030E001C0220F6A95EAF78281282B2283AA
:104930000895262F2695269526952E3170F4FC0194
:10494000E20FF11D677021E030E001C0220F6A958F
:10495000EAF72095828128232283089520911B0263
:10496000222329F02091FA0627FD0C9485240C942B
:104970005E2420911B02222329F02091FA0627FDB4
:104980000C9499240C94782420911B02FC013296FB
:10499000222331F08091FA0687FF02C08EE101C028
:1049A00086E0DF011D928A95E9F7089508950C9439
:1049B000D6240C94D624CF930E94D9240E947B063F
:1049C0000E94D724C0E08C2F0E941206892B29F464
:1049D000CF5FC530C1F780E001C081E0CF9108957D
:1049E0000C94D6240E94470380910007843049F13B
:1049F0001092EC0420E488E190E00FB6F894A895BA
:104A0000809360000FBE2093600080E00E94C4038A
:104A10000E94470383B7817F846083BF83B781602F
:104A200083BF7894889583B78E7F83BF0FB6F89441
:104A3000A89580916000886180936000109260006A
:104A40000FBE08950E94751D0E94DE180E94C403C7
:104A50000C944C031F920F920FB60F9211248F9358
:104A60009F93AF93BF938091EC04811113C0809109
:104A7000F6069091F706A091F806B091F9064196D6
:104A8000A11DB11D8093F6069093F706A093F8063A
:104A9000B093F906BF91AF919F918F910F900FBE88
:104AA0000F901F90189582E084BD93E095BD9AEF1A
:104AB00097BD80936E0008952FB7F8948091F60605
:104AC0009091F706A091F806B091F9062FBF0895CE
:104AD0002FB7F8946091F6067091F7068091F8066A
:104AE0009091F9062FBF08959C014FB7F8948091DB
:104AF000F6069091F706A091F806B091F9064FBF1F
:104B0000821B930B0895CF92DF92EF92FF922FB703
:104B1000F894C090F606D090F706E090F806F09072
:104B2000F9062FBFA7019601261B370B480B590B1F
:104B3000CA01B901FF90EF90DF90CF90089578946B
:104B40001F920F920FB60F9211248F939F93AF93E2
:104B5000BF938091F6069091F706A091F806B09168
:104B6000F9060196A11DB11D8093F6069093F706F4
:104B7000A093F806B093F906BF91AF919F918F91E2
:104B80000F900FBE0F901F90189581E08093E0006A
:104B900080E28093D8001092C9008FE19EE40197D3
:104BA000F1F700C0000087E090EBDC01809309077B
:104BB00090930A07A0930B07B0930C079CE088E141
:104BC0000FB6F894A895809360000FBE9093600094
:104BD000FFCF0C946B230E947B068FEB9DE5019722
:104BE000F1F700C000000E947B0680E00E941206E0
:104BF00080FF04C00E94E9250C94C52508950E94F9
:104C00007123811102C00E9411240E947C23809391
:104C1000EB040E9484239093FB068093FA060E9483
:104C20008023682F70E080E090E00E94F120609186
:104C3000BE047091BF048091C0049091C1040C9493
:104C400029218091F30480FF0BC060910E0285E062
:104C5000689FB001112475956795759567952BC070
:104C600081FF09C060910E0285E0689FB0011124A8
:104C70007595679520C082FF07C060910E0285E0A0
:104C8000689FB001112417C09091F2049923D1F0CC
:104C900060910D02961788F720910E0285E0289FFB
:104CA00090011124929FA001939F500D112470E058
:104CB000CA010E94B12F6038710540F46115710579
:104CC00019F406C065E070E0862F08958FE7089517
:104CD00081E008958091F30480FF08C060910A028A
:104CE00070E0759567957595679521C081FF06C041
:104CF00060910A0270E07595679519C082FF04C043
:104D000060910A0270E010C09091F104992399F02B
:104D1000609109029617A0F780910A02899FC0014D
:104D2000112470E00E94B12F6038710540F46115C4
:104D3000710519F406C061E070E0862F08958FE7D1
:104D4000089581E00895803F21F40E9421268195F5
:104D500004C0813F29F40E9421268093F70408951E
:104D6000823F21F40E942126819504C0833F29F4CB
:104D70000E9421268093F6040895893F19F40E9429
:104D80006A2605C08A3F31F40E946A268195809385
:104D9000F80408958B3F21F40E946A26819504C08F
:104DA0008C3F29F40E946A268093F9040895843F79
:104DB00021F48091F504816017C0853F21F4809132
:104DC000F504826011C0863F21F48091F50484606F
:104DD0000BC0873F21F48091F504886005C0883FAF
:104DE00031F48091F50480618093F50408958D3F3E
:104DF00021F48091F30481600BC08E3F21F48091F7
:104E0000F304826005C08F3F29F48091F30484602D
:104E10008093F3040895803F39F48091F70487FF6D
:104E20006AC01092F70467C0813F29F48091F704AB
:104E30001816BCF360C09091F604823F29F497FFE6
:104E40005AC01092F60457C0833F19F41916CCF3D8
:104E500052C09091F804893F31F419160CF04BC000
:104E60001092F80448C08A3F19F497FF44C0F8CF65
:104E70008B3F39F48091F90487FF3DC01092F9040B
:104E80003AC08C3F29F48091F9041816BCF333C062
:104E9000843F21F48091F5048E7F17C0853F21F473
:104EA0008091F5048D7F11C0863F21F48091F50437
:104EB0008B7F0BC0873F21F48091F504877F05C06D
:104EC000883F31F48091F5048F7E8093F50413C000
:104ED0008D3F21F48091F3048E7F0BC08E3F21F42F
:104EE0008091F3048D7F05C08F3F29F48091F304F6
:104EF0008B7F8093F3048091F604811106C080912A
:104F0000F704811102C01092F2048091F80481111B
:104F100006C08091F904811102C01092F104089535
:104F20000E945C252091F604211104C02091F70411
:104F3000222321F09093F0048093EF042091F80451
:104F4000211104C02091F904222321F09093EE0452
:104F50008093ED0484EF94E00C941119EF92FF928A
:104F60000F931F93CF93DF9300D000D000D0CDB725
:104F7000DEB786E0E4EFF4E0DE01119601900D92D9
:104F80008A95E1F7E090F604F090F7040091F804B8
:104F90001091F9041092F6041092F7041092F8049C
:104FA0001092F904E11003C0FF2009F45DC0809164
:104FB000EF049091F0040E947425AC019091F204EA
:104FC000992339F020910F0230E02417350758F06B
:104FD0004BC0209110028AE0289F900111242417D1
:104FE000350718F041C09F3F19F09F5F9093F2047E
:104FF000EE2061F00E9421261E1414F09FEF01C0E4
:1050000091E0989F902D11249093F604FF2061F079
:105010000E9421261F1414F09FEF01C091E0989F79
:10502000902D11249093F7043091F6043323E1F08E
:105030002091F7042223C1F045EB3403C001112471
:10504000992319F09093F60403C081E08093F6044D
:1050500035EB2303C0011124992319F09093F70431
:1050600003C081E08093F704011103C0112309F408
:105070005DC08091ED049091EE040E947425AC0116
:105080009091F104992339F020910B0230E024171C
:10509000350758F04BC020910C028AE0289F900100
:1050A00011242417350718F041C09F3F19F09F5F66
:1050B0009093F104002361F00E946A26101614F008
:1050C0009FEF01C091E0989F902D11249093F804D8
:1050D000112361F00E946A26111614F09FEF01C09F
:1050E00091E0989F902D11249093F9043091F80449
:1050F0003323E1F02091F9042223C1F045EB34037E
:10510000C0011124992319F09093F80403C081E0A1
:105110008093F80435EB2303C0011124992319F07F
:105120009093F90403C081E08093F9048091F60420
:1051300081110BC08091F704811107C08091F804A0
:10514000811103C08091F90481110E949027EB82A4
:10515000FC820D831E8386E0FE013196A4EFB4E04D
:1051600001900D928A95E1F726960FB6F894DEBF6E
:105170000FBECDBFDF91CF911F910F91FF90EF90A8
:105180000895E4EFF4E086E0DF011D928A95E9F7E7
:105190001092F2041092F1041092F3040895809199
:1051A0001A050895CF93DF9300D01F92CDB7DEB7D5
:1051B00090910007943019F589837B836A8382E09C
:1051C0008093E9008FEF9091E800815095FD06C033
:1051D00095ED9A95F1F700008111F5CF8091E800E7
:1051E00085FF0DC040E050E063E070E0CE01019625
:1051F0000E94FF2A8091E8008E778093E8000F904C
:105200000F900F90DF91CF910895BC0184E00C9432
:10521000D228BC0183E00C94D22822E02093E9003C
:105220002FEF3091E800215035FD06C035ED3A955D
:10523000F1F700002111F5CF2091E80025FF0BC008
:1052400040E050E066E070E00E94FF2A8091E800B4
:105250008E778093E8000895CF93DF9320911B020F
:10526000222339F02091FA0627FF03C060E222E0F2
:1052700002C068E021E02093E9002FEF3091E800C0
:10528000215035FD06C035ED3A95F1F700002111AA
:10529000F5CF2091E80025FF1DC0EC0180911B0295
:1052A000811105C040E050E068E070E003C070E0AC
:1052B00040E050E0CE010E94FF2A8091E8008E7706
:1052C0008093E80080E2FE01AAEFB4E001900D9225
:1052D0008A95E1F7DF91CF9108958091FF068111C2
:1052E00009C00E94902C0E94ED2C8091E200846005
:1052F0008093E20008951092FF060895089508959E
:105300000C94222542E061EC81E00E94092C42E2EB
:1053100061EC82E00C94092C80910207833009F43F
:1053200060C030F4813071F0823009F499C0089582
:105330008A3009F485C08B3009F46BC0893009F0DC
:10534000A7C020C080910107813A09F0A1C08091D7
:10535000E800877F8093E800809105079091060719
:10536000892B21F460E28AEF94E003C060E080E0E2
:1053700090E070E00E944A2B8091E8008B77809348
:10538000E800089580910107813209F081C0809181
:10539000050790910607029708F07AC08091E8000F
:1053A000877F8093E8008091E80082FD05C08091AE
:1053B00000078111F8CF6CC02091F3008091F200BA
:1053C00090E0922B029729F48091F1008B7F81303D
:1053D00021F48091F10080931A058091E8008B7789
:1053E00053C080910107813A09F052C080910507AE
:1053F00090910607892B09F04BC08091E800877FC8
:105400008093E8008091E80080FFFCCF80911B0230
:1054100036C0809101078132D9F5809105079091BE
:105420000607892BA9F58091E800877F8093E80023
:105430000E943E2C8091030780931B020C94751DE3
:1054400080910107813221F58091E800877F809368
:10545000E8000E943E2C8091040780931B0508956C
:1054600080910107813AA1F48091E800877F8093C1
:10547000E8008091E80080FFFCCF80911B058093BD
:10548000F1008091E8008E778093E8000C943E2C28
:10549000089584B7877F84BF0FB6F894A89580914C
:1054A0006000886180936000109260000FBE90E001
:1054B00080E80FB6F89480936100909361000FBE6E
:1054C0000E945B190E94902C0E94ED2C8091E200BA
:1054D00084608093E20078940E94822F0E94651974
:1054E00081E192E00E94D91880910007853069F42B
:1054F0000E94F2248091FE068823B1F30E94DB24EF
:10550000882391F30E94E92AEFCF0E946D19ECCF16
:105510000C948A2A292F332723303105C9F060F4EF
:105520002130310581F02230310509F04AC08BE38A
:1055300090E022EB34E049C02132310511F12232F2
:10554000310579F13EC082E190E02DEE34E03DC0BE
:1055500099278130910561F040F08230910559F032
:10556000039779F5ECE7F4E008C0EEEAF4E005C053
:10557000EEE9F4E002C0E2E8F4E0849190E09F01FB
:1055800024C06115710541F061307105D1F489E0E5
:1055900090E02DED34E019C089E090E024EC34E097
:1055A00014C06115710541F06130710551F48CEB47
:1055B00090E02FEF34E009C080E490E02BEB35E081
:1055C00004C080E090E020E030E0FA0131832083E5
:1055D000089580E189BD82E189BD09B400FEFDCF57
:1055E0008091D8008F7D8093D8008091E000826008
:1055F0008093E0008091E00081FDFCCF0895CF9280
:10560000DF92EF92FF920F931F93CF93DF93EC0102
:105610008B017A010E945D2C811133C0E114F104E9
:1056200039F0F70180819181081B190BC80FD91F30
:10563000C12CD12C0115110519F18091E80085FDCF
:1056400016C08091E8008E778093E800E114F104A1
:1056500049F0F70180819181C80ED91ED182C082A4
:1056600085E00FC00E945D2C882321F30AC0899138
:105670008093F10001501109FFEFCF1ADF0ADACF52
:1056800080E0DF91CF911F910F91FF90EF90DF901D
:10569000CF90089520910707309108072617370704
:1056A00048F06115710539F42091E8002E772093B8
:1056B000E80001C0B901FC0120E06115710579F134
:1056C000809100078823F1F18530F1F18091E800A5
:1056D00083FD3CC08091E80082FD2EC08091E800EF
:1056E00080FFEBCF2091F3008091F20090E0922BAD
:1056F0006115710551F08830910538F4219120939E
:10570000F100615071090196F3CF21E0089709F08B
:1057100020E08091E8008E778093E800CECF2111C1
:10572000CFCF0AC080910007882361F0853061F0F7
:105730008091E80083FD0AC08091E80082FFF2CFEB
:1057400080E0089582E0089583E0089581E008955F
:1057500020910707309108072617370748F0611591
:10576000710539F42091E8002E772093E80001C0FC
:10577000B901FC0120E06115710591F180910007EC
:10578000882309F440C0853009F43FC08091E800C7
:1057900083FD3DC08091E80082FD2FC08091E8002C
:1057A00080FFE9CF2091F3008091F20090E0922BEE
:1057B0006115710559F08830910540F424912093CA
:1057C000F1003196615071090196F2CF21E00897FE
:1057D00009F020E08091E8008E778093E800CBCF3D
:1057E0002111CCCF0AC080910007882361F0853059
:1057F00061F08091E80083FD0AC08091E80082FF9B
:10580000F2CF80E0089582E0089583E0089581E07A
:105810000895982F973068F59093E900981739F01C
:105820007091EC002091ED005091F00003C0242F06
:10583000762F50E021FD02C09F5FECCF3091EB004E
:105840003E7F3093EB003091ED003D7F3093ED00D3
:105850003091EB0031603093EB007093EC002093BB
:10586000ED005093F0002091EE0027FDE5CF80E0A1
:1058700008958F708093E90081E008958091010779
:1058800087FF11C08091E80082FD05C0809100076C
:105890008111F8CF11C08091E8008B770BC0809107
:1058A0000007882349F08091E80080FFF8CF8091BD
:1058B000E8008E778093E80008952091E40030910D
:1058C000E50095E64091EC00842F817040FF23C0F5
:1058D0008091E80080FD1DC080910007882399F029
:1058E000853099F08091EB0085FD11C04091E40076
:1058F0005091E5002417350729F3915011F09A01D2
:10590000E1CF84E0089582E0089583E0089581E086
:10591000089580E008954091E80042FFDDCF0895AA
:105920000E94FE2C0E94062DE0EEF0E08081816056
:105930008083E8EDF0E080818F77808319BCA7ED4C
:10594000B0E08C918E7F8C9380818F7E80831092CB
:10595000FF0608950F931F93CF93DF930E94FE2CB1
:105960000E94062DC8EDD0E088818F7788838881DA
:105970008068888388818F7D888319BC1092000796
:105980001092FC061092FE061092FD0600EE10E04A
:10599000F80180818B7F808388818160888342E0E9
:1059A00060E080E00E94092CE1EEF0E080818E7FD3
:1059B0008083E2EEF0E08081816080838081886076
:1059C0008083F80180818E7F8083888180618883D5
:1059D000DF91CF911F910F910895E8EDF0E0808164
:1059E0008F7E8083E7EDF0E080818160808384E0BA
:1059F00082BF81E08093FF060C94AA2CE8EDF0E0D2
:105A000080818E7F80831092E20008951092DA00E8
:105A10001092E10008951F920F920FB60F92112479
:105A20002F933F934F935F936F937F938F939F93A6
:105A3000AF93BF93EF93FF938091E10082FF0BC080
:105A40008091E20082FF07C08091E1008B7F80930C
:105A5000E1000E94812F8091DA0080FF1FC08091B9
:105A6000D80080FF1BC08091DA008E7F8093DA001F
:105A70008091D90080FF0DC080E189BD82E189BDA0
:105A800009B400FEFDCF81E0809300070E946D29DC
:105A900005C019BC109200070E947B298091E1008B
:105AA00080FF19C08091E20080FF15C08091E20064
:105AB0008E7F8093E2008091E20080618093E2001B
:105AC0008091D80080628093D80019BC85E08093D3
:105AD00000070E947F298091E10084FF30C08091FF
